:020000040800F2
:10000000D8090020B501000849330008B92F0008BD
:1000100045330008DD020008AD360008000000008E
:100020000000000000000000000000005133000844
:10003000E1020008000000004D33000855330008BD
:10004000CF010008CF010008CF010008CF01000850
:10005000CF010008CF010008CF010008CF01000840
:10006000CF010008CF010008CF010008CF01000830
:10007000CF010008CF010008CF010008CF01000820
:10008000CF010008CF010008CF010008CF01000810
:10009000CF010008CF010008CF010008CF01000800
:1000A0005D330008813300087533000869330008A8
:1000B0008D33000861340008CF010008CF0100082B
:1000C000CF010008CF010008CF010008CF010008D0
:1000D000CF010008A1360008CF010008CF010008B9
:1000E000CF010008CF010008CF01000800F002F89E
:1000F00000F050F814A696E8000CB244B344DA4578
:1001000001D100F047F8BAE80F000FA696E83000DA
:10011000A5EB040504EB0607AAEB0704A7F101070A
:100120004FEA15154FEA3414A4F10104AC4201D38F
:1001300000F030F813F0010F18BFFB1A43F0010371
:1001400000F001F8DBE7184744710000647100001B
:10015000103A24BF78C878C1FAD8520724BF30C8F3
:1001600030C144BF04680C60704700007047000055
:100170000023002400250026103A28BF78C1FBD8B0
:10018000520728BF30C148BF0B6070471FB51FBD65
:1001900010B510BD00F06CF81146FFF7F7FF03F043
:1001A000A7FD00F08AF803B4FFF7F2FF03BC00F0EC
:1001B0008DF800000948804709480047FEE7FEE740
:1001C000FEE7FEE7FEE7FEE7FEE7FEE7FEE7FEE707
:1001D00004480549054A064B70470000593300089A
:1001E000ED000008D8030020D8090020D805002021
:1001F000D80500204FF0000200B5134694469646FD
:10020000203922BFA0E80C50A0E80C50B1F1200129
:10021000BFF4F7AF090728BFA0E80C5048BF0CC0D7
:100220005DF804EB890028BF40F8042B08BF704735
:1002300048BF20F8022B11F0804F18BF00F8012BA7
:10024000704770477047704710B500F009F80068B4
:1002500010BD10B5044600F003F8046010BD0000A6
:1002600000487047500000200048704750000020B0
:100270007546FFF7F9FFAE4605006946534620F084
:100280000700854618B020B5FFF7A2FFBDE8204063
:100290004FF000064FF000074FF000084FF0000B42
:1002A000AC46ACE8C009ACE8C009ACE8C009ACE8B1
:1002B000C00921F007018D46704710B50446AFF321
:1002C00000802046BDE81040FFF76DBF01491820AF
:1002D000ABBEFEE72600020070470000FEE700000C
:1002E00070470000014690F82100022813D10868E9
:1002F000D1E90FC3026822F00E020260026822F008
:1003000001020260012000FA03F2CCF8042081F817
:100310002100002002E0042088630120002281F8EF
:100320002020704790F82110022923D1026811681B
:1003300021F00E0111602F211368C4F202018A42DC
:1003400040F20401C4F2020123F00103136015DD41
:100350003023C4F202039A421CD04423C4F20203A5
:100360009A421AD05823C4F202039A421AD14FF487
:1003700080331FE004218163012070470823C4F209
:1003800002039A420CD01C23C4F202039A4209D100
:1003900010230FE04FF480730CE04FF4805309E01A
:1003A000012307E001F1680C4FF08073624508BF3C
:1003B0004FF480130B60012180F82110426B002163
:1003C00080F8201022B180B590470021BDE8804020
:1003D00008467047B0B5044600F016F9054640F2ED
:1003E0004000C2F200000078611C18BF044400BF46
:1003F00000F00AF9401BA042FAD3B0BD2DE9F04F3E
:1004000082B00E68002E00F0F68041F20042C4F285
:100410000102042340F2004E904208BF03234FF62E
:10042000FF7CC4F2010E009300240123C1F2100CE2
:100430004FF0000A4FF0000943E0012704F00C03DD
:100440000F229A402BEA020207FA03F34FEA9A05B9
:100450001A4346F825204E6840F20C45F202DEF8B9
:10046000082054BF22EA080242EA0802C4F2010549
:10047000CEF808202A68B30254BF22EA080242EAF2
:1004800008022A60B303DEF8042054BF22EA0802FF
:1004900042EA0802F303CEF80420DEF800204FF011
:1004A000010354BF22EA080242EA0802CEF8002003
:1004B0000E680AF1010A36FA0AF204F1040400F0A7
:1004C0009A8003FA0AFB16EA0B08F1D04E686645DB
:1004D00010DC122E50D8DFE806F0330A41454F4FAA
:1004E0004F4F4F4F4F4F4F4F4F4F4F484C00D1F84A
:1004F0000C9041E04FF6FF72C1F2210296420FDCF0
:100500000022C1F2110296421AD00022C1F2120258
:10051000964215D00022C1F22102964210D02BE063
:100520000022C1F2220296420AD00022C1F2310218
:10053000964205D00022C1F2320296421CD100BF81
:100540008A6842B1012A14BFC0F814B0C0F810B0D4
:100550004FF0080910E04FF004090DE0CA6802F1FD
:10056000080909E04FF0000906E0CA6802F1040931
:1005700002E0CA6802F10C0922460646B8F5807FFF
:1005800024BF203A043637680F25954027EA050531
:1005900009FA02F22A433260CA79D2067FF588AF9F
:1005A00041F21803C4F202031A68AEF57E7642F0F7
:1005B00001021A601A6802F001020192019A2AF0FF
:1005C000030256F802B040F60002C4F20102904263
:1005D0000FD040F60042C4F2010290423FF42DAF2A
:1005E00041F20002C4F20102009F904208BF0227BC
:1005F00024E7002722E702B0BDE8F08F002A08BFF9
:10060000090401617047000040F2D030C2F20000DE
:1006100000687047002804BF01207047F0B581B022
:10062000044690F83D0028B9002084F83C0020469C
:1006300000F07AFF242084F83D002068016821F052
:1006400001010160016841F400410160016821F489
:100650000041016001F066F9636848F2A16CC0F2E4
:10066000010C40F60011C0F23D0163453CBF48F269
:100670008041C0F21E01884202D2012001B0F0BDCB
:100680004DF68361C4F21B31A0FB01122168970C67
:10069000D1F804E04FF496762EF03F0545EA9245F6
:1006A0004D60774348F638160D6AC0F24106A7FB45
:1006B000067625F03F07634538BF960C721C3A4317
:1006C0000A62CA6948F2A0664CF6FF77C0F20106DA
:1006D000B34222EA070C0AD801385A00B0FBF2F004
:1006E00001306FF31F30042898BF042020E0A26877
:1006F0001927002A08BF032701385F43B0FBF7F72B
:1007000001373F0509D052B119225A43B0FBF2F02C
:100710000422013062F31F3008E0012008E003EBFF
:100720004302B0FBF2F001306FF31F3040F40040A1
:1007300040EA0C00C8610868D4E9072320F0C00033
:10074000104318430860886848F2FF3204F10C0730
:1007500090438CCF18431043A6698860C86820F086
:10076000FF0038433043C860086840F0010008606B
:1007700000202021206484F83D10206384F83E008E
:1007800001B0F0BD2DE9F04F83B00446002099463A
:10079000164688460190FFF737FF94F83D10202950
:1007A00009D182462068806910F0020007D194F8D0
:1007B0003C00012829D1022003B0BDE8F08F0125BB
:1007C00085EA500707E000BF2068806910F002004A
:1007D00085EA5007EBD0FFF717FFA0EB0A001A28B5
:1007E000F2D3206880698007EED5002020212063A5
:1007F00084F83D1084F83E00216C41F02001216412
:10080000F90784F83C00D2D1D5E70121206884F8AB
:100810003C100168C90703D1016841F00101016082
:10082000016821F400610160222184F83D1010214B
:1008300084F83E10002121646662A4F82A90618D3C
:1008400021850021CFF6FF71E162E16A026811F5AE
:10085000803F42F48062026018BF012925D10168FF
:1008600041F4807101604069DDF8309010F00100C2
:1008700037D180F0010709F101060AE020684169DB
:10088000C90718D02068406910F0010080F0010706
:1008900027D1002EF6D0FFF7B7FEB9F1000FEDD04B
:1008A000A0EB0A004845EDD9E8E70829D7D0216B2D
:1008B0001129D4D0D7E700212022216384F83D20DC
:1008C00084F83E10226C42F020022264FA0784F879
:1008D0003C1006D00068C00544BF4FF4007020648F
:1008E000C6E02069B0F5804F03D148F00100C1B2E5
:1008F00089E0062000EAD815206805F1F0010161C1
:10090000416909071DD44169490500F19D8009F13C
:10091000010700BF6FB1FFF777FEB9F1000F03D0F9
:10092000A0EB0A00484504D920684069000740F15F
:10093000298220684169090703D441694905E9D53D
:1009400082E020685FFA88F10161416989071CD45F
:100950004169490578D409F1010700BF6FB1FFF77C
:1009600053FEB9F1000F03D0A0EB0A00484504D9AB
:1009700020684069800740F1058220684169890745
:1009800003D441694905E9D55EE000200290206862
:1009900041690291816902910299016841F4807173
:1009A0000160406910F001002BD180F0010709F1CE
:1009B00001060AE020684169C90712D02068406931
:1009C00010F0010080F001071BD1002EF6D0FFF7D8
:1009D0001BFEB9F1000FEDD0A0EB0A004845EDD9A0
:1009E000E8E700212022216384F83D2084F83E10AE
:1009F000226C42F020022264FA0784F83C107FF453
:100A000069AF45F0F101206801614169890733D47C
:100A10004169490518D409F1010700BF6FB1FFF71B
:100A2000F3FDB9F1000F03D0A0EB0A00484504D94B
:100A300020684069800740F1A581206841698907E5
:100A40001AD441694905E9D5016841F40071016092
:100A50006FF48061416100202021206384F83D1003
:100A600084F83E00216C41F00401216484F83C00CC
:100A7000012003B0BDE8F08F208D022810D001289E
:100A800024D0002838D100200290206841690291CA
:100A9000816902910299016841F40071016037E0B7
:100AA0002068016841F400610160EFF3108072B6C4
:100AB00000200290206841690291816902910299A7
:100AC000016821F48061016062B621E0206801685C
:100AD00021F480610160EFF3108072B60020029073
:100AE000206841690291816902910299016841F48B
:100AF0000071016062B60BE02068016841F480611A
:100B0000016000210291416902918069029002987E
:100B1000208D002800F01F8140F200064BF2895B17
:100B20004FF0010809F10105C2F20006C1F2F84BCD
:100B3000032812D801283FD002286DD120685F46D3
:100B4000406910F0040040F0978088EA900B22E0A2
:100B500020684069400640F11581206850F8141F54
:100B600049063DD40168C90600F10081FFF74CFD3C
:100B7000B9F1000FECD0A0EB0A004845EDD9E7E74A
:100B800020684069400766D52068406910F004007D
:100B900088EA900B70D1002DF6D0FFF735FDB9F142
:100BA000000FEDD0A0EB0A004845EDD9E8E720683A
:100BB0004069400640F1E680206850F8141F49065D
:100BC00000F1B8800168C90600F1D080FFF71CFD74
:100BD000B9F1000FEBD0A0EB0A004845ECD9E6E7ED
:100BE0002068616A00690870606A228D0130013AEC
:100BF000606222852168638D013B63854B695B07D9
:100C000040F1A58092B2032A03D10A6822F48062DF
:100C10000A600969017091E02068406910F00400E1
:100C200051D188EA90070AE02068406940073AD528
:100C30002068406910F0040088EA900743D1002D35
:100C4000F6D0FFF7E1FCB9F1000FEDD0A0EB0A0000
:100C50004845EDD9E8E700212020216384F83D00D4
:100C600084F83E10206C40F0200020645FEACB70D6
:100C700084F83C107FF4FCAEEFF3108072B620686D
:100C8000616A0268BB4642F4007202600069087043
:100C9000606A218D01306062481E2085608D0138B8
:100CA000608562B646E000212020216384F83D0083
:100CB00084F83E10206C40F020002064F80784F88F
:100CC0003C107FF4D5AE2068016821F4806101609A
:100CD000EFF3108072B62068616A00690870606A7C
:100CE000218D0130013960622185618D0139618575
:100CF0003168C908A1FB0B12110A2322514301914B
:100D00000199013901910199002946D021684A6968
:100D10005207F5D50A6842F400720A600969017049
:100D2000606A218D01306062481E2085608D013827
:100D3000608562B62068616A00690870606A218D0A
:100D400001306062481E2085608D01386085208DED
:100D500000287FF4EDAE202084F83D00002084F8C8
:100D60003E0084F83C0003B0BDE8F08F6FF0100146
:100D7000016000202021206384F83D1084F83E00AB
:100D8000216C72E600202021206384F83D1084F855
:100D90003E00216C41F0200167E600202021206305
:100DA00084F83D1084F83E00216C41F0200121645C
:100DB00062B65BE62DE9F04782B0994692468846D6
:100DC0000446FFF721FC94F83D10202909D105467F
:100DD0002068806910F0020008D194F83C000128D6
:100DE00028D10226304602B0BDE8F087012686EA07
:100DF000500706E02068806910F0020086EA50077C
:100E0000EBD0FFF701FC401B1A28F3D32068806960
:100E10008007EFD500202021206384F83D1084F85E
:100E20003E00216C41F020012164F90784F83C0068
:100E3000D3D1D6E70121206884F83C100168C907A6
:100E400003D1016841F001010160016821F40061F2
:100E50000160212184F83D10102184F83E1000210A
:100E60002164C4F824A0A4F82A90618D2185002172
:100E7000CFF6FF71E162E16A11F5803F18BF0129E9
:100E800024D1016841F4807101604069DDF8289047
:100E900010F0010037D180F0010609F101070AE0E6
:100EA00020684169C90717D02068406910F0010027
:100EB00080F0010627D1002FF6D0FFF7A5FBB9F18E
:100EC000000FEDD0401B4845EED9E9E70829D8D0FE
:100ED000216B1229D5D0D8E700212022216384F884
:100EE0003D2084F83E10226C42F020022264F2077A
:100EF00084F83C1007D000680126C00544BF4FF4B9
:100F0000007020646EE72069B0F5804F01D1FE21AA
:100F100025E0062000EAD8112068F031016141691E
:100F200009071BD4416949053BD409F1010600BFFB
:100F300066B1FFF769FBB9F1000F02D0401B4845CD
:100F400004D920684069000740F1D18020684169D8
:100F5000090703D441694905EAD522E0FF21206849
:100F600001EA080101614169890730D441694905F5
:100F700017D409F1010600BF66B1FFF745FBB9F1CF
:100F8000000F02D0401B484504D920684069800703
:100F900040F1AD8020684169890718D4416949054D
:100FA000EAD5016841F4007101606FF4806141612C
:100FB00000202021206384F83D1084F83E00216C3D
:100FC00041F00401216484F83C0001260AE7002670
:100FD0000196206841690191806901900198208DF6
:100FE000002859D009F1010704E000BF20684069DA
:100FF000000663D5206850F8141F09060DD4016857
:10100000490556D4002FF5D0FFF7FEFAB9F1000FCD
:10101000ECD0401B4845EDD9E8E7D4F824E022683D
:10102000704610F8013B13616062608D0138608585
:10103000B4F828C01046ACF10103238550F8141F02
:1010400049070DD519040BD09EF8011011610EF15E
:1010500002016162618D01396185ACF10201218576
:10106000016806E020684069400727D5206850F8ED
:10107000141F49070DD4016849051AD4002FF5D073
:10108000FFF7C2FAB9F1000FECD0401B4845EDD98B
:10109000E8E7208D0028ADD12068016841F4007197
:1010A0000160202084F83D0084F83E6084F83C60B4
:1010B00098E66FF480610160042000E020200021A8
:1010C0002022216384F83D2084F83E10226C1043D6
:1010D000206484F83C10206C042806D12068012686
:1010E000016841F4007101607CE601267AE6002087
:1010F0002021206384F83D1084F83E00216C41F0EB
:1011000020015FE72DE9F04F85B0044600209846A6
:1011100092468B460490FFF777FA94F83D10202909
:1011200009D105462068806910F0020007D194F8C3
:101130003C00012828D1022005B0BDE8F08F01262F
:1011400086EA500707E000BF2068806910F00200BF
:1011500086EA5007EBD0FFF757FA401B1A28F3D363
:10116000206880698007EFD500202021206384F863
:101170003D1084F83E00216C41F020012164F90704
:1011800084F83C00D3D1D6E70121226884F83C10D2
:101190001368DDE90F090E99DB0703D1136843F0EB
:1011A00001031360136823F400631360222284F8A0
:1011B0003D20402284F83E20002222646162608546
:1011C000608D594620850020CFF6FF70E0622046F2
:1011D00052464346CDE9009501F0F0FE18B10120DA
:1011E00005B0BDE8F08F208D022810D0012824D052
:1011F000002838D10020039020684169039181695B
:1012000003910399016841F40071016037E020689F
:10121000016841F400610160EFF3108072B60020B4
:1012200003902068416903918169039103990168E2
:1012300021F48061016062B621E02068016821F438
:1012400080610160EFF3108072B600200390206887
:1012500041690391816903910399016841F4007127
:10126000016062B60BE02068016841F480610160B2
:101270000021039141690391806903900398208DB7
:10128000002800F01F8140F200064FF0010A09F12A
:101290000107C2F200064FF02308032813D80228E2
:1012A0006DD001283CD02068B346406910F004009E
:1012B00040F093808AEA900622E000BF20684069EF
:1012C000400640F11F81206850F8141F49063AD4A7
:1012D0000168C90600F1FD80FFF796F9B9F1000F2A
:1012E000ECD0401B4845EED9E8E72068406940074C
:1012F00063D52068406910F004008AEA90066CD13A
:10130000002FF6D0FFF780F9B9F1000FEDD0401BA8
:101310004845EED9E9E720684069400640F1F2808F
:10132000206850F8141F490600F1BB800168C90607
:1013300000F1CF80FFF768F9B9F1000FEBD0401B47
:101340004845EDD9E7E72068616A00690870606A7E
:10135000228D0130013A606222852168638D013B54
:1013600063854B695B0740F1A98092B2032A03D1E0
:101370000A6822F480620A600969017095E02068B9
:10138000406910F0040077D18AEA900B0AE02068E7
:10139000406940075FD52068406910F004008AEA80
:1013A000900B69D1002FF6D0FFF72EF9B9F1000F9D
:1013B000EDD0401B4845EED9E9E70021202021630C
:1013C00084F83D0084F83E10206C40F0200020643A
:1013D000F00784F83C107FF402AF20684BF289528A
:1013E0000168C1F2F84221F480610160EFF31080DE
:1013F00072B62068616A00695E460870606A218D75
:101400000130013960622185618D01396185DBF828
:101410000010C908A1FB0212110A01FB08F1049196
:10142000049901390491049900295ED021684A6920
:101430005207F5D50A6842F400720A600969017022
:10144000606A218D01306062481E2085608D013800
:10145000608562B625E000212020216384F83D00EC
:1014600084F83E10206C40F0200020645FEACB70CE
:1014700084F83C107FF4B3AEEFF3108072B62068AE
:10148000616A026842F40072026000690870606A72
:10149000218D01306062481E2085608D0138608595
:1014A00062B62068616A00690870606A218D013047
:1014B0006062481E2085608D01386085208D00287F
:1014C0007FF4EBAE202084F83D00002084F83E003D
:1014D00024E06FF01001016000202021206384F8D7
:1014E0003D1084F83E00206C16E00020202120638F
:1014F00084F83D1084F83E00206C40F02000206409
:1015000062B60AE000202021206384F83D1084F8B0
:101510003E00206C40F0200020640120002184F86F
:101520003C1005B0BDE8F08F10B586B0006845F6F8
:101530000001C4F2000188424FF00001CDE904111E
:10154000CDE9021131D045F20041C4F200018842D8
:101550004FD141F21804C4F20204206802A940F0FD
:1015600008002060206800F00800019001984FF406
:1015700040700290122003900320059040F6004036
:10158000C4F20100FEF73AFF0420C4F20100016832
:1015900041F0E06141F002010160606840F4001038
:1015A0006060606800F4001021E041F21804C4F2A9
:1015B0000204206802A940F008002060206800F0C2
:1015C0000800019001984FF44060029012200390AF
:1015D0000320059040F60040C4F20100FEF70EFF24
:1015E000606840F480006060606800F480000190F2
:1015F000019806B010BD000040F2400040F2D0312A
:10160000C2F20000C2F2000100780A6810440860CB
:101610007047000080B542F20000C4F20200016889
:1016200041F010010160032000F08EF80F2000F05F
:1016300005F800F02BF8002080BD0000B0B540F2A6
:101640004002C2F2000240F200011278C2F2000130
:101650004FF47A730968B3FBF2F20446B1FBF2F17E
:10166000084600F027FB0F2C4FF001050CD858B9A5
:101670004FF0FF3021460022002500F039F840F2FB
:101680004400C2F2000004602846B0BD82B041F2BE
:101690001800C4F202000168022241F00101016059
:1016A000016801F0010101910199416841F0805107
:1016B0004160406800F08050009000980420C4F21F
:1016C0000100016862F31A61016002B07047000016
:1016D000002848BF704700F01F01012202FA01F103
:1016E0004EF200124009CEF2000242F8201070477C
:1016F00010B54EF60C5CCEF2000CDCF80030C3F3F3
:10170000022E8EF00704042C28BF0424BEF103032C
:101710004FF0FF3E0EFA04F438BF0023A143994076
:101720000EFA03F39A43114300F1604200F00F03F5
:10173000090102F56442043B6344002848BF03F1F9
:101740000C02117010BD00004EF60C51CEF20001DB
:101750000A684FF6FF031A4060F30A2242F08060E5
:1017600040F0FD7008607047002804BF01207047FA
:101770002DE9F04381B042F20008C4F202080446A9
:10178000D8F800000D4600F0070088420CD2D8F8C7
:10179000000020F007002843C8F80000D8F8000037
:1017A00000F00700A8426BD1206841F204098107CC
:1017B000C4F2020917D5410705D5D9F8001041F444
:1017C000E061C9F80010010705D5D9F8001041F40F
:1017D0006051C9F80010D9F80010A26821F0F0019A
:1017E0001143C9F80010C00741D1D8F8000000F03B
:1017F0000700A8420CD9D8F8000020F007002843C1
:10180000C8F80000D8F8000000F00700A84237D15F
:101810002068410707D5D9F80010E26821F4E0619B
:101820001143C9F80010000708D5D9F80000216954
:1018300020F4605040EAC100C9F80000D9F8002047
:1018400002F00C00082841F20020C0F27A004DD1CD
:1018500047F25A23C2F38341C0F60003595CD20316
:1018600038D440F60010C0F23D0048433EE06068C6
:10187000022809D0012828D159F8041C890307D46B
:10188000012001B0BDE8F08359F8041C8901F7D5A7
:10189000D9F8001021F003010843C9F80000FEF751
:1018A000B3FE064641F28837D9F80000616800F0BF
:1018B0000C00B0EB810F98D0FEF7A6FE801BB8425B
:1018C000F2D9032001B0BDE8F08359F8041C890760
:1018D000D6D5DDE7D9F8002047F25823C2F34042BD
:1018E000C0F600039A5C4843B0FBF2F0D9F8001050
:1018F00047F24022C1F30311C0F60002515C40F2EE
:10190000000220FA01F140F24400C2F20000006837
:10191000C2F200021160FFF791FE002001B0BDE8A5
:10192000F083000040F2000041F20401C2F2000026
:10193000C4F202010068096847F25022C1F3022193
:10194000C0F60002515CC8407047000040F2000041
:1019500041F20401C2F20000C4F202010068096809
:1019600047F25022C1F3C221C0F60002515CC840C8
:1019700070470000002804BF012070472DE9F041A6
:1019800082B00446007841F20006C007C4F20206A5
:1019900049D0706800F00C00042809D13068800339
:1019A00041D5606800283ED1012002B0BDE8F08139
:1019B000706800F00C00082802D17068C003EDD4F4
:1019C00065682DB1B5F5A02F0AD0B5F5803F0BD0D5
:1019D000306820F480303060306820F4802006E0E9
:1019E000306840F480203060306840F480303060EF
:1019F000FEF70AFE002D054612D000BF30688003B6
:101A000011D4FEF701FE401B6428F7D918E100BF8E
:101A1000FEF7FAFD401B64284FF0030000F2D88067
:101A200030688003F4D42078800719D5706810F0EE
:101A30000C0F07D0706800F00C00082827D17068E0
:101A4000C00324D43068800703D52069012840F002
:101A5000A6803068616920F0F80040EAC10030607B
:101A6000207800074ED5A06938B30020C4F2422088
:101A70000121C0F88014FEF7C7FD0546706A800793
:101A80002DD4FEF7C1FD401B0228F7D9D8E020690C
:101A9000002840F20000C4F2422000F0A88001219A
:101AA0000160FEF7B1FD054630688007D1D4FEF72E
:101AB000ABFD401B0228F7D9C2E00020C4F242204F
:101AC0000021C0F88014FEF79FFD0546706A80076C
:101AD00018D5FEF799FD401B0228F7D9B0E040F277
:101AE0000000C2F20000006844F6D351C1F2620166
:101AF000A0FB0101480A019000BF0198411E002887
:101B00000191F9D12078400717D4E5698DB170684B
:101B100000F00C00082846D1012D40D07068216AE1
:101B200000F480328A423AD1616A00F4701088422F
:101B300035D1002002B0BDE8F081F0695FEAC0084D
:101B400008D4F06940F08050F061F06900F08050F6
:101B50000090009847F20007C4F200073868C005FB
:101B60000FD4386840F480703860FEF74DFD0546AC
:101B70003868C00505D4FEF747FD401B6428F7D937
:101B80005EE0E5681DB1052D42D0012D44D0306ADC
:101B900020F001003062306A20F004003FE00120B4
:101BA00002B0BDE8F0810027C4F242270020386669
:101BB000FEF72AFD022D05460ED100BF30688001D8
:101BC00055D5FEF721FD401B02284FF00300F5D943
:101BD00002B0BDE8F08100BF30688001A9D5FEF7F2
:101BE00013FD401B02284FF00300F5D9F0E7002158
:101BF0000160FEF709FD0546306880077FF530AFCC
:101C0000FEF702FD401B02284FF00300F4D9DFE786
:101C1000306A40F004003062306A40F00100306207
:101C2000FEF7F2FC002D054641F2883713D000BFC5
:101C3000306A800712D4FEF7E7FC401BB842F7D9A0
:101C4000032002B0BDE8F081FEF7DEFC401BB84285
:101C50004FF00300BCD8306A8007F5D4B8F1000F0C
:101C60003FF553AFF06920F08050F0614DE7206AF6
:101C7000B0F5803F05D17168A26821F400311143AD
:101C800071607168626A21F47411114308437060D5
:101C900001203866FEF7B8FC044600BF30688001BA
:101CA0003FF547AFFEF7B0FC001B02284FF00300E2
:101CB000F4D98DE7411E0020B0EB116F1CBF01204D
:101CC00070474EF21002CEF2000251604EF62351E0
:101CD000CEF20001F0230B70072190601160704775
:101CE000704700007047000090F83C20012A04BFB4
:101CF00002207047B0B501F108053CCDD1E900CE16
:101D000023F47C5322F470521A432EF4F0431A4306
:101D10002CF4E0431A4324F4C0431A432A43C9690C
:101D200022F48042036811435964002180F83C107A
:101D3000BDE8B0400846704790F83C20012A4FF0BB
:101D4000020234D010B5012380F83C3080F83D20E9
:101D50000268D2F804E0D2F808C00C682EF07003D4
:101D6000234340F2FF74C4F20004A242536005DC36
:101D7000B2F1804F0ED040F2004307E042F600433C
:101D8000C4F201039A4205D040F60003C4F20003F6
:101D90009A4204D149682CF08003194391600121D3
:101DA000002280F83D1080F83C20BDE8104010462D
:101DB00070470000002804BF0120704710B504469A
:101DC00090F83D0028B9002084F83C00204600F03F
:101DD00065F8022084F83D00206840F2FF73026835
:101DE000C4F2000342F6004C9842C4F2010C05DC38
:101DF000B0F1804F0AD040F2004103E0604505D0C9
:101E000040F60001C4F20001884203D1A16822F02B
:101E100070020A43984205DCB0F1804F0AD040F2CC
:101E2000004103E0604505D040F60001C4F2000126
:101E3000884203D1216922F440720A43A36922F047
:101E40008001D4F804E0E268194360450160C26291
:101E5000C0F828E002D16169CCF83010012141615D
:101E60000269D20703D0026922F001020261002058
:101E700084F8461084F83E1084F83F1084F840102F
:101E800084F8411084F8421084F8431084F8441018
:101E900084F8451084F83D1010BD000070B586B080
:101EA00000680026B0F1804FCDE9046603960296E3
:101EB00033D040F20041C4F20001884273D042F6B0
:101EC0000041C4F20101884240F0AB8041F21800A9
:101ED000C4F202000168002241F400610160006860
:101EE000002100F40060019001981820FFF700FC29
:101EF0001820FFF7EDFB192000210022FFF7F8FB67
:101F00001920FFF7E5FB1A2000210022FFF7F0FB64
:101F10001A20FFF7DDFB1B247BE041F21800C4F21E
:101F20000200416840F6000441F00101416041684F
:101F3000C4F2010401F0010101910199016802ADAF
:101F400041F004010160016801F00401019101996F
:101F5000016841F0080101600068294600F00800AE
:101F6000019001984FF40040CDE902062046049606
:101F7000FEF744FA0820CDE9020604F58060294600
:101F80000496FEF73BFA0420C4F2010001684FF604
:101F9000FF42CFF6FF02114041F0E06141F4807151
:101FA00001601C2435E041F21800C4F202004168CF
:101FB00040F6000441F0020141604168C4F20104AE
:101FC00001F0020101910199016802AD41F00401A3
:101FD0000160016801F0040101910199016841F07B
:101FE000080101600068294600F00800019001988E
:101FF000C020CDE9020620460496FEF7FFF9032033
:10200000CDE9020604F5806029460496FEF7F6F94C
:102010001D24204600210022FFF76AFB2046FFF71F
:1020200057FB06B070BD000090F83C20012A4FF02D
:10203000020200F0C68080B5012380F83C3080F8B1
:102040003D20D0F800C04FF67772DCF8083023EA64
:102050000202CCF808200B684F2B28DC1F2B44DD34
:10206000202B45D0302B43D0402B40F0AC80D1F812
:1020700004E0C968DCF82030DCF8202022F00102FE
:10208000CCF82020DCF8182022F0F00242EA0111FE
:1020900023F00A0242EA0E02CCF81810CCF82020F5
:1020A000DCF8081041F0470121F030017EE06F2B91
:1020B00026DDB3F5005F47D0B3F5805F78D0702B95
:1020C00040F08180D1E901E3C968DCF8082043EAE7
:1020D0000E0322F47F4243EA01211143CCF8081099
:1020E000DCF8081041F0770160E00BB1102B6AD1E9
:1020F000DCF8081021F07001194341F0070155E0A8
:10210000502B34D0602B5ED1D1F804E0C968DCF8E4
:102110002030DCF8202022F01002CCF82020DCF85F
:10212000182022F4704242EA013123F0A00242EA70
:102130000E12CCF81810CCF82020DCF8081041F072
:10214000670121F0100131E0D1E901E3C968DCF851
:10215000082043EA0E0322F47F4243EA012111439F
:10216000CCF80810DCF8081041F480411EE0D1F8EA
:1021700004E0C968DCF82030DCF8202022F00102FD
:10218000CCF82020DCF8182022F0F00242EA0111FD
:1021900023F00A0242EA0E02CCF81810CCF82020F4
:1021A000DCF8081041F0570121F02001CCF80810AC
:1021B0000022012180F83D10002180F83C10BDE88C
:1021C0008040104670470122F3E70000704700008E
:1021D00090F83C30012B04BF022070474FEAB20256
:1021E0000123032A80F83C3000F2A380F0B5DFE839
:1021F00002F0021B3B590368D1E900C5D1F80CE09D
:102200001C6A1A6A40F2FF7722F001021A621A462B
:1022100052F8186FC4F20007BB4267DCB3F1804F7D
:1022200070D040F2004769E00368D1E900E6D1E9E7
:1022300002C11C6A1A6A360222F010021A621A4699
:1022400052F8185F4FF2FF07BE4325F4734561F360
:102250000F3624F0A0040EF00A0746EA050144EA0E
:10226000071711601F623AE00768D1E900C5D1E99C
:1022700002313C6A3A6A61F3071522F480723A62CD
:102280003A4652F81C6F26F0F30645EA06014FEA7B
:102290005C0666F3492411603C62116821F00C0170
:1022A000116040E00368D1E900E6D1E902C11C6A8F
:1022B0001A6A360222F480521A621A4652F81C5FD9
:1022C0004FF2FF07BE4325F4734561F30F364FEA23
:1022D0005E0746EA050167F34D3411601C62116820
:1022E0004FEA0C2321F4406111601CE042F60047E4
:1022F000C4F20107BB4205D040F60007C4F2000754
:10230000BB421BD126F00306354324F00A070CF02C
:102310000A066EF3071537449D611F629F6927F017
:102320000C079F618B681168194300231160BDE899
:10233000F040002180F83C101846704746F0010537
:10234000E3E70000002804BF0120704710B50446F1
:1023500090F83D0028B9002084F83C00204600F0A9
:1023600065F8022084F83D00206840F2FF7302689F
:10237000C4F2000342F6004C9842C4F2010C05DCA2
:10238000B0F1804F0AD040F2004103E0604505D033
:1023900040F60001C4F20001884203D1A16822F096
:1023A00070020A43984205DCB0F1804F0AD040F237
:1023B000004103E0604505D040F60001C4F2000191
:1023C000884203D1216922F440720A43A36922F0B2
:1023D0008001D4F804E0E268194360450160C262FC
:1023E000C0F828E002D16169CCF8301001214161C8
:1023F0000269D20703D0026922F0010202610020C3
:1024000084F8461084F83E1084F83F1084F8401099
:1024100084F8411084F8421084F8431084F8441082
:1024200084F8451084F83D1010BD0000704700008E
:1024300041B1082909D0042914BF00F1410200F17B
:102440003F0204E000F13E0201E000F14002127898
:1024500041B1082909D0042914BF00F1450300F156
:10246000430304E000F1420301E000F1440380B5BE
:10247000012A4FF001021B7808BF012B01D0104642
:1024800080BD022249B1082913D0042914BF80F865
:10249000412080F83F2019B90FE080F83E2061B15B
:1024A00008290DD0042914BF80F8452080F8432066
:1024B00008E080F840200029F2D180F8422001E0B5
:1024C00080F844204FEAB103032B11D847F26C2C5B
:1024D000D0F800E0C0F6000C5CF823C0DEF80C2059
:1024E00042EA0C02CEF80C200022032BC7D802E0EF
:1024F0000122032BC3D8006801F01F014FF0010C2B
:10250000036A0CFA01F18B430362036A194340F238
:10251000FF73C4F200039842016205DCB0F1804F02
:102520000ED040F2004107E042F60041C4F2010142
:10253000884205D040F60001C4F20001884204D16F
:10254000816801F00701062999D0016841F0010175
:102550000160104680BD000070B504460068C56883
:102560000669B10716D515F0020113D06FF002010C
:102570000161012121778069800703D02046FFF7A0
:1025800025FE05E0204600F0B9F8204600F02EFABE
:1025900000202077700718D515F0040015D02068AA
:1025A0006FF00401016102212177806910F4407FFE
:1025B00003D02046FFF70AFE05E0204600F09EF813
:1025C000204600F013FA00202077300717D515F0C9
:1025D000080014D020686FF0080101610421217700
:1025E000C069800703D02046FFF7F0FD05E02046D4
:1025F00000F084F8204600F0F9F900202077F0067A
:1026000018D515F0100015D020686FF01001016189
:1026100008212177C06910F4407F03D02046FFF7DE
:10262000D5FD05E0204600F069F8204600F0DEF90F
:1026300000202077F00718BF15F0010002D1300606
:1026400009D412E020686FF001010161204600F01A
:102650002FFA300609D515F0800006D020686FF0FB
:10266000800101612046FFF73BFB700609D515F09C
:10267000400006D020686FF040010161204600F064
:1026800019FAB00658BF70BD15F0200008D02168B7
:102690006FF0200220460A61BDE87040FFF722BBC0
:1026A00070BD000080B586B0014640F60000C4F25F
:1026B0000100096800F5105291424FF00001CDE988
:1026C0000411CDE9021101D006B080BD41F218011C
:1026D000C4F202010A6842F004020A60096801F0CB
:1026E0000401019101994FF470610291022103915B
:1026F000059102A9FDF782FE06B080BD704700007B
:1027000090F83C30012B04BF022070474FEAB20220
:102710000123032A80F83C3000F2EC802DE9F041DF
:10272000DFE802F0023B77B2036842F600451C6A1C
:102730001A6AC4F2010522F001021A621A46D3F89D
:1027400004C052F818EF8E6824F00204AB4244EA49
:10275000060405D1CE6824F00C0426F004063443A8
:102760000E68AB4206D1D1E905582CF440772F43CF
:1027700047EA080C2EF073073743C3F804C09F6183
:102780004F6809695F631C629F6947F008079F6192
:102790009F6927F004079F61A6E0036842F60045A1
:1027A0001C6A1A6AC4F2010522F010021A621A4663
:1027B000D3F804C052F818EF8E6824F02004AB421E
:1027C00044EA061407D1CE686FF0400724F0C00435
:1027D00007EA061634430E68AB4206D1D1E9055725
:1027E0002CF4406C3D434CEA850C2EF4E64747EA56
:1027F0000627C3F804C09F614F6809699F631C6284
:102800009F6947F400679F619F6927F480679F6114
:1028100069E0036842F600451C6A1A6AC4F20105C1
:1028200022F480721A621A46D3F804C052F81CEFE0
:102830008E6824F40074AB4244EA062407D1CE68C3
:1028400040F2FF47360224F44064BE4334430E682E
:10285000AB4206D1D1E905572CF4405C3D434CEA2C
:10286000051C2EF073073743C3F804C0DF614F68BF
:102870000969DF631C62DF6947F00807DF61DF6910
:1028800027F00407DF612FE0036842F60047D3F822
:1028900020C01A6AC4F2010722F480521A621A4652
:1028A0005C6852F81C5FD1F800E08E68BB4204D12E
:1028B0004F6924F4804444EA87142CF4005747EA13
:1028C000063725F4E64646EA0E265C60DE614E6871
:1028D00009691E641F62DF6947F40067DF61DF6911
:1028E00027F48067DF610902136819430023116030
:1028F000BDE8F041002180F83C1018467047000008
:10290000002804BF0120704710B5044690F83D0030
:1029100028B9002084F83C00204600F065F8022029
:1029200084F83D00206840F2FF730268C4F200039F
:1029300042F6004C9842C4F2010C05DCB0F1804F25
:102940000AD040F2004103E0604505D040F60001A6
:10295000C4F20001884203D1A16822F070020A4348
:10296000984205DCB0F1804F0AD040F2004103E00C
:10297000604505D040F60001C4F20001884203D151
:10298000216922F440720A43A36922F08001D4F83D
:1029900004E0E268194360450160C262C0F828E0C3
:1029A00002D16169CCF83010012141610269D2077E
:1029B00003D0026922F001020261002084F846106F
:1029C00084F83E1084F83F1084F8401084F84110D9
:1029D00084F8421084F8431084F8441084F84510B9
:1029E00084F83D1010BD00007047000070470000E3
:1029F00041B1082909D0042914BF00F1410200F1B6
:102A00003F0204E000F13E0201E000F140021278D2
:102A1000012A1CBF01207047022241B1082909D0B8
:102A2000042914BF80F8412080F83F2004E080F89A
:102A30003E2001E080F84020006801F01F010122E3
:102A4000036A8A4023EA02010162036A42F64441B2
:102A5000C4F201011A43A1F144039842026203D176
:102A60000A6842F400420A6040F2FF71C4F20001B9
:102A7000884205DCB0F1804F0ED040F2004107E003
:102A800042F60041C4F20101884205D040F600013F
:102A9000C4F20001884204D1816801F007010629CF
:102AA00003D0016841F0010101600020704700007F
:102AB000704700007047000070470000704700003A
:102AC000B0B582B0044600680168C368426901F08D
:102AD0002F05202D03F0200506D12DB1204602B090
:102AE000BDE8B04000F07CBD5FEA017C1EBF02F093
:102AF000010E03F4907212EB0E0240D1226BCD0650
:102B000018D5012A16D113F0100213D0002101911B
:102B1000016801914168019101994069400636D4EC
:102B2000A08DE18DE28D002A18BF884240F00C8113
:102B300002B0B0BD0A0670D513F080026DD094F8D3
:102B400041102129F4D1A168B1F5805F03D1216939
:102B5000002900F02E81216A4A1C22620978416016
:102B6000E18C01390A04E184E2D1C16821F08001DD
:102B7000C160C16841F04001C16002B0B0BDC8078A
:102B800018BF13F480705CD1480760D466E0E06B36
:102B9000016849688AB2002ACAD0A38D9A42C7D276
:102BA000E1858069202830D0206850E8030F216833
:102BB00020F4807041E80302002AF5D1206850E833
:102BC000050F216820F0010041E80502002AF5D137
:102BD000206850E8050F216820F0400041E8050218
:102BE000002AF5D1202084F842000020206300BF95
:102BF000206850E8030F216820F0100041E803022C
:102C0000002AF5D1E06BFDF76DFB02206063A08D1B
:102C1000E18D401A81B22046C0E049067FF588AFB9
:102C200013F040013FF484AFC16821F04001C1605E
:102C30002021204684F8411002B0BDE8B04000F0E9
:102C4000B9B9606C40F001006064480706D5BEF178
:102C5000000F03D0606C40F002006064880706D566
:102C6000BEF1000F03D0606C40F004006064BCF162
:102C7000000F06D55EEA050003D0606C40F0080046
:102C80006064606C00283FF453AF880603D515B12B
:102C9000204600F0A5FC20684069616C00F040000F
:102CA00001F00801401848D0206850E8030F21685F
:102CB00020F4907041E80302002AF5D1206850E822
:102CC000050F216820F0010041E80502002AF5D136
:102CD000206B01280AD100BF206850E8030F21684B
:102CE00020F0100041E80302002AF5D1202084F8EA
:102CF00042000020206320684069400653D500BF91
:102D0000206850E8050F216820F0400041E80502E6
:102D1000002AF5D1E06B002845D043F2D551C0F62A
:102D200000014163FDF7FEFA00283FF401AFE06BBC
:102D3000416B02B0BDE8B04008472046FFF7BEFE39
:102D40000020606402B0B0BD401A00BF216851E8A5
:102D5000031F226821F4907142E80313002BF5D180
:102D6000216851E8051F226821F0010142E805139E
:102D7000002BF5D1202184F842100021216300BFEF
:102D8000216851E8031F226821F0100142E8031373
:102D9000002BF5D1022281B22046626302B0BDE869
:102DA000B040FFF789BE204602B0BDE8B040FFF753
:102DB00085BE216A31F8022B6FF35F2242602162E7
:102DC000CEE60000002804BF0120704710B504467D
:102DD00090F8410028B9002084F84000204600F017
:102DE00061F8242084F841002068D4E90212C36805
:102DF00023F40053C360036923F440531A43026170
:102E0000D4E904231143C268194341F20C639A4385
:102E10001143C1604169A26921F44071114343F635
:102E20000002C4F201029042416102D0FEF77AFD35
:102E300001E0FEF78BFDD4E90023192148439900F6
:102E4000B0FBF1F048F21F5CC5F2EB1CA0FB0C31AB
:102E50004FF69C734909C0F6FF7301FB0300322350
:102E600003EB0010A0FB0C03F02000EA531000EB72
:102E70000110C3F34311084490601069202120F42D
:102E800090401061506920F02A005061D06840F4F1
:102E90000050D0600020606484F8411084F8421033
:102EA000606310BD70B586B0006844F20041C4F2A2
:102EB0000001002688420596CDE90366029648D0B7
:102EC00043F60001C4F2010188426FD141F21800BB
:102ED000C4F20200016802AD41F480410160016862
:102EE00001F4804101910199016841F008010160FC
:102EF0000068294600F008000190019840200290E7
:102F0000022003900320059040F60000C4F2010067
:102F100000F580642046FDF771FA802002900020C1
:102F2000CDE9030020462946FDF768FA0420C4F2E3
:102F300001000168002241F0E06141F004010160FC
:102F400025200021FEF7D4FB2520FEF7C1FB06B0AB
:102F500070BD41F21800C4F20200416840F600045E
:102F600041F4003141604168C4F2010401F40031D0
:102F700001910199016802AD41F00401016000680E
:102F8000294600F0040001900198042002900220DC
:102F90000390032005902046FDF730FA0820CDE984
:102FA0000206204629460496FDF728FA06B070BDB1
:102FB0007047000070470000FEE700002DE9F04F69
:102FC00083B004460068DDF834B00C9E076899466B
:102FD00047F4806707600768904647F48073036092
:102FE00040698A4610F001002AD180F00107751C63
:102FF0000BE000BF20684069C00711D0206840691D
:1030000010F0010080F001071AD1002DF6D0FDF775
:10301000FBFA002EEED0A0EB0B00B042EED9E9E7B0
:1030200000202021206384F83D1084F83E00216CAC
:1030300041F020012164F90784F83C0040F0B2809F
:1030400020680AF0FE0AC0F810A0416989072CD454
:103050004169490514D4771C5FB1FDF7D5FA1EB15B
:10306000A0EB0B00B04204D920684069800740F112
:10307000D18020684169890717D441694905EBD59A
:10308000016841F4007101606FF4806141610020CA
:103090002021206384F83D1084F83E00216C41F02B
:1030A0000401216484F83C00B0E000200290206814
:1030B00050F8141F029141680291029901680906B3
:1030C0001AD4771C0AE000BF20684069000640F16E
:1030D0008880206850F8141F09060DD4016849053E
:1030E0006BD4002FF5D0FDF78FFA002EECD0A0EBBB
:1030F0000B00B042EDD9E7E72068B9F1010F21D00C
:103100004FEA1821016150F8141F090619D4771CE1
:1031100009E000BF20684069000662D5206850F8C9
:10312000141F09060DD40168490546D4002FF5D0B7
:10313000FDF76AFA002EEDD0A0EB0B00B042EDD9FE
:10314000E8E720685FFA88F10161206850F8141FF1
:10315000090618D4771C08E020684069000640D5AD
:10316000206850F8141F09060DD40168490524D4BD
:10317000002FF5D0FDF748FA002EEDD0A0EB0B00A4
:10318000B042EDD9E8E7206800220168334641F4F7
:103190008071016020464FF00111CDF800B000F0C1
:1031A00045F878B120680068C00544BF4FF400704E
:1031B0002064032003B0BDE8F08F6FF480610160EC
:1031C00004200FE025684AF001070221C0F2010146
:1031D000204632465B462F6103B0BDE8F04F00F059
:1031E0006FB8202000212022216384F83D2084F83C
:1031F0003E10226C1043206484F83C10206C04289C
:1032000004D12068016841F400710160012003B01D
:10321000BDE8F08F00202021206384F83D1084F861
:103220003E00216C41F020013BE700002DE9F04712
:10323000DDF8208099461646044601F47F078DB2DA
:1032400003F1010A0EE000BF20681821B7F5803FA6
:1032500008BF142140582840401BB0FA80F04009B4
:10326000B0421DD020681821B7F5803F08BF142157
:1032700040582840401BB0FA80F04009B0420CD1C1
:10328000BAF1000FEED0FDF7BFF9B9F1000FDBD0B6
:10329000A0EB08004845E5D9D6E70020BDE8F08757
:1032A00000202021206384F83D1084F83E00216C2A
:1032B00041F02001216484F83C000120BDE8F08742
:1032C0002DE9F04104460068984643698FB203EA4D
:1032D0000701B94202D10020BDE8F08141694905EA
:1032E00017D41646551C00BF5DB1FDF78DF91EB110
:1032F000A0EB0800B04204D9206840693840B842C9
:103300001ED1206841693940B942E4D0416949057C
:10331000EAD5016841F4007101606FF48061416198
:10332000042000212022216384F83D2084F83E10EF
:10333000226C10432064012084F83C10BDE8F08129
:103340002020EEE7FEE70000FEE7000070470000E7
:1033500070470000FEF750B97047000040F20820A7
:10336000C2F20000FFF7F8B840F20820C2F20000F5
:10337000FFF7F2B840F20820C2F20000FFF7ECB805
:1033800040F20820C2F20000FFF7E6B840F6080C51
:103390002021C4F2010CC4F20001DCF8003051F825
:1033A000102C1B0422F0020241F8102C4A690DD4A3
:1033B00040F21813C2F20003186882420FD2186854
:1033C0004A69101A4FF6FF7202440BE040F21813DC
:1033D000C2F200031A600A6842F002020AE0486979
:1033E0001A68821A40F2B000C2F200000260086857
:1033F00020F002020A60DCF8002451F8100C1207D9
:1034000020F0040041F8100C88690DD440F21C1221
:10341000C2F20002136898420FD210688A69101A2B
:103420004FF6FF7210440BE040F21C12C2F2000291
:103430001060086840F020020AE088691268801A6B
:1034400040F2B402C2F200021060086820F02002CC
:1034500040F25020C2F200000A60FFF77DB8000081
:1034600040F22040C4F2000050F8101C890727D514
:1034700050F8101C21F0020140F8101C416902684C
:10348000920708D440F22012C2F2000211600168D3
:1034900041F0020113E040F22012C2F20002136870
:1034A00012684FF6FF7C994238BF6144891A40F296
:1034B000B802C2F200021160016821F0020101604D
:1034C00050F8101C490727D550F8101C21F00401B2
:1034D00040F8101C81690268920608D440F2241258
:1034E000C2F200021160016841F0200113E040F2D5
:1034F0002412C2F20002136812684FF6FF7C994250
:1035000038BF6144891A40F2BC02C2F20002116065
:10351000016821F02001016050F8101C090727D52F
:1035200050F8101C21F0080140F8101CC169026815
:10353000920508D440F22812C2F20002116001681C
:1035400041F4007113E040F22812C2F20002136845
:1035500012684FF6FF7C994238BF6144891A40F2E5
:10356000C002C2F200021160016821F40071016022
:1035700050F8101CC90627D550F8101C21F0100176
:1035800040F8101C016A0268920408D440F22C1220
:10359000C2F200021160016841F4005113E040F2F0
:1035A0002C12C2F20002136812684FF6FF7C994297
:1035B00038BF6144891A40F2C402C2F200021160AD
:1035C000016821F40051016040F29820C2F200002D
:1035D000FEF7C2BF406A0021C185C184FFF76EBA01
:1035E00090F84210222918BF70478268B2F5805FB8
:1035F00001D1016991B1816AB2F5805F07D00AB942
:10360000026922B10268526802F07F0201E002689A
:1036100052680A70816A0131816207E00168826A3A
:1036200049686FF35F2122F8021B8262C18D013964
:103630000A04C18500D070470168CA6822F02002E0
:10364000CA60CA6822F48072CA604A6922F0010224
:103650004A61202180F8421000214163026B012A57
:1036600018BFFFF7A5BC81B0016300BF016851E836
:10367000031F026821F0100142E80313002BF5D16B
:1036800001680A68D20606D5002200920A680092F4
:10369000496800910099818D01B0FFF70DBA0000D3
:1036A00040F2E020C2F20000FFF70ABAFEE7000095
:1036B0002DE9F04381B040F24C1040F2A831C2F243
:1036C0000000C2F200010068096803F00DFC044626
:1036D00040F2180040F27431C2F2000040F280392A
:1036E000C2F200010068C2F20009D9F800500C6073
:1036F000214603F02DFB294603F0D6F8074640F299
:103700002400C2F20000D0F80080C9F800704046E2
:1037100003F09EFA06463846314603F05FF9354617
:1037200010B1C9F800500CE0C8F1000003F090FAA5
:1037300005463846294603F058F9002808BFC9F85D
:10374000005040F23000C2F200000068D9F800508A
:10375000214603F0FDFA294603F0A6F840F20C01D9
:1037600040F28C39C2F20001C2F200090D68D9F8AA
:1037700000100746204603F0B7FB0146284603F039
:10378000E7FA394603F090F840F29835C2F20005A6
:1037900031460746286003F021F908B12E600BE09E
:1037A000C8F1000003F054FA06463846314603F0EB
:1037B0001CF9002808BF2E6040F23C1040F2A031F6
:1037C000C2F20000C2F2000100680968C9F80040B6
:1037D00003F08AFB044640F2140040F27031C2F25A
:1037E000000040F27C39C2F200010068C2F2000918
:1037F000D9F800500C60214603F0AAFA294603F0DC
:1038000053F8074640F22000C2F20000D0F80080D2
:10381000C9F80070404603F01BFA064638463146A8
:1038200003F0DCF8354610B1C9F800500CE0C8F1DF
:10383000000003F00DFA05463846294603F0D5F896
:10384000002808BFC9F8005040F22C00C2F2000066
:103850000068D9F80050214603F07AFA294603F0AF
:1038600023F840F2080140F28839C2F20001C2F2A6
:1038700000090D68D9F800100746204603F034FB14
:103880000146284603F064FA394603F00DF840F289
:103890009435C2F2000531460746286003F09EF8D1
:1038A00008B12E600BE0C8F1000003F0D1F9064624
:1038B0003846314603F099F8002808BF2E6040F2E0
:1038C0005C1040F2B031C2F20000C2F200010068A8
:1038D0000968C9F8004003F007FB044640F21C00E9
:1038E00040F27831C2F2000040F28439C2F20001A5
:1038F0000068C2F20009D9F800500C60214603F0BC
:1039000027FA294602F0D0FF074640F22800C2F20B
:103910000000D0F80080C9F80070404603F098F924
:1039200006463846314603F059F8354610B1C9F815
:1039300000500CE0C8F1000003F08AF90546384653
:10394000294603F052F8002808BFC9F8005040F299
:103950003400C2F200000068D9F80050214603F09C
:10396000F7F9294602F0A0FF40F2100140F2903929
:10397000C2F20001C2F200090D68D9F80010074632
:10398000204603F0B1FA0146284603F0E1F9394632
:1039900002F08AFF40F29C35C2F20005314607462C
:1039A000286003F01BF808B12E600BE0C8F100009E
:1039B00003F04EF906463846314603F016F8002863
:1039C00008BF2E60C9F8004001B0BDE8F0830000D8
:1039D0002DE9F04F81B040F2F40540F2481840F272
:1039E000381A40F2581640F2D40740F2DC0440F294
:1039F000D809C2F200050020C2F20008C2F2000A93
:103A0000C2F20006C2F20007C2F20004C2F20009CC
:103A100040F2CF7B286061E000F008F9D8F80000A0
:103A200002F095FB024640F24010C2F2000009C8C5
:103A30008C461946634602F009F902F059FBDAF8A0
:103A40000010C8F80000084602F081FB024640F270
:103A50003010C2F2000009C88C461946634602F0D5
:103A6000F5F802F045FB3168CAF80000084602F09C
:103A70006EFB024640F25010C2F2000009C88C46AC
:103A80001946634602F0E2F802F032FB3968306012
:103A9000084603F0DDF840F2D001C2F200010968E7
:103AA00002460846114602F0FFFE03F0B5F8216811
:103AB0003860084603F0CCF8D9F8001002460846F2
:103AC000114602F0F1FE03F0A7F820600420FCF795
:103AD00081FC2968481C5945286018DA4BF65101C9
:103AE00045F62942C0F21E51CCF28F2200FB021093
:103AF00047F2A201C0F63D2188428DD841F20C0167
:103B0000C4F20101086880F48040086084E741F253
:103B10000C014FF48040C4F201014860D8F8000065
:103B200044F6D35CC1F2620C80FB0C0EDAF80000A4
:103B300080FB0C03306880FB0C05386880FB0C01AF
:103B4000206880FB0C024FEAEE1000EBDE70C8F834
:103B50000000D81100EBD370CAF80000E81100EBA8
:103B6000D5703060C81100EBD1703860D01100EB17
:103B7000D270206001B0BDE8F08F000070B582B057
:103B800040F260146B20C2F200040DF10605ADF89E
:103B900006004FF0FF362046D0212A460223009629
:103BA000FDF708F940F61B00ADF806002046D021CD
:103BB0002A4602230096FDF7FDF841F21C00ADF8FD
:103BC00006002046D0212A4602230096FDF7F2F88F
:103BD00040F21A30ADF806002046D0212A460223D2
:103BE0000096FDF7E7F81B208DF806002046D0214F
:103BF0002A4601230096FDF7DDF80DF10502204667
:103C0000D02101230096FCF7BDFD9DF80500082892
:103C100004BF02B070BD41F21000C4F201004FF4C5
:103C2000804101600A20FCF7D5FBFBE770B588B046
:103C30000E200DF11201CDE9001040F260104FF09E
:103C4000FF35C2F20000D0213B2201230295FDF78F
:103C500059FABDF81200C0BA02F0FAFF40F2D001E2
:103C6000BDF81420C2F200010860D0BA02F0F0FFE3
:103C700040F2D801BDF81620C2F200010860D0BAA7
:103C800002F0E6FF40F2E001BDF81820C2F20001A8
:103C90000860D0BA40F2C831BDF81A20C2F2000163
:103CA0000860D0BA02F053FA40F24012BDF81C305E
:103CB000C2F20002C2E90001D8BA02F048FA044692
:103CC000BDF81E0040F23016C0BA0D46C2F2000622
:103CD00002F03DFA40F25012C2F2000285F00043B9
:103CE00081F00041C6E90043C2E9000108B070BD9F
:103CF0009CB0FDF78FFC05AC20462821FCF77AFA32
:103D00000120059009904FF4E01000254FF4803118
:103D100002260E9020461395CDE91155CDE90F5599
:103D2000CDE90615CDE90C61FDF724FE18B1EFF3DE
:103D3000108072B6FEE70F20CDE90F064FF48060C9
:103D4000CDE912050FA802211195FDF70DFD20B157
:103D5000EFF3108072B600BFFEE7002541F21800B5
:103D6000CDE90755CDE90555C4F20200016841F2DD
:103D7000000441F0100101600168C4F2010401F087
:103D800010010F910F99016841F6802641F0200142
:103D900001600168002201F020010F910F99016874
:103DA000C0F2060641F00401016001684FF4C0470B
:103DB00001F004010F910F99016841F008010160C1
:103DC00000684FF4C04100F008000F900F982046A3
:103DD000FCF714FC0120CDE906050220089005A996
:103DE00020460597FCF70AFB40F26010A4F53C4121
:103DF000C2F200004FF48042C0E90016C0E902554B
:103E0000C0E90425C0E906550562FCF703FC20B1B2
:103E1000EFF3108072B600BFFEE742F6004A40F2B0
:103E20000820C4F2010AC2F20000472144F61F62D2
:103E30001B95CDE91955CDE91755CDE91555CDE9B6
:103E40001355CDE91155CDE90F55CDE90B55CDE908
:103E50000955CDE90755CDE90555C0E900A1C0E9EF
:103E60000252C0E904558561FDF7A4FF18B1EFF3D4
:103E7000108072B6FEE74FF48050189040F2082090
:103E8000C2F2000018A9FEF7CFF820B1EFF31080BE
:103E900072B600BFFEE740F20820C2F20000FEF753
:103EA0002FFD20B1EFF3108072B600BFFEE740F2A5
:103EB00008200025C2F2000016A9CDE91655FDF72D
:103EC0003BFF20B1EFF3108072B600BFFEE7602029
:103ED0000F904FF47A70CDE9100540F20820C2F23D
:103EE00000000FA90022CDE91255CDE91455FEF7C7
:103EF00007FC20B1EFF3108072B600BFFEE740F27E
:103F00000820C2F200000FA90422FEF7F9FB20B13D
:103F1000EFF3108072B600BFFEE740F20820C2F255
:103F200000000FA90822FEF7EBFB20B1EFF3108091
:103F300072B600BFFEE740F20820C2F200000FA9EF
:103F40000C22FEF7DDFB18B1EFF3108072B6FEE72E
:103F50004FF400500A9040F208200027C2F20000FF
:103F600005A90997CDE90777CDE905770C97FDF706
:103F7000BBFE18B1EFF3108072B6FEE740F20825E1
:103F8000C2F2000528460021FEF732FD2846042132
:103F9000FEF72EFD28460821FEF72AFD28460C21B3
:103FA000FEF726FD2846FEF77DFB40F25020C2F2C8
:103FB00000004FF080414FF6FF73CDE90777CDE960
:103FC0000577CDE91877CDE91177CDE90F7747224D
:103FD00080E88600C0E903378761FDF7EBFE18B182
:103FE000EFF3108072B6FEE74FF48050059040F278
:103FF0005020C2F2000005A9FEF716F818B1EFF341
:10400000108072B6FEE740F25020C2F20000FEF7C8
:1040100099F918B1EFF3108072B6FEE740F2502024
:104020000025C2F2000018A9CDE91855FDF784FE5D
:1040300018B1EFF3108072B6FEE70120CDE910054C
:1040400040F25020C2F200000FA900220F951295F5
:10405000FEF7BEF818B1EFF3108072B6FEE740F23B
:104060005020C2F200000FA90422FEF7B1F818B1E7
:10407000EFF3108072B6FEE740F25025C2F2000561
:10408000284600210027FEF7D3F928460421FEF731
:10409000CFF940F29820A4F58631C2F200004FF625
:1040A000FF73CDE90777CDE90577CDE91877CDE93D
:1040B0001177CDE90F77472280E88600C0E9033702
:1040C0008761FDF777FE18B1EFF3108072B6FEE757
:1040D0004FF48050059040F29820C2F2000005A9EC
:1040E000FDF7A2FF18B1EFF3108072B6FEE740F2C1
:1040F0009820C2F20000FEF725F918B1EFF3108006
:1041000072B6FEE740F298200025C2F2000018A91E
:10411000CDE91855FDF710FE18B1EFF3108072B617
:10412000FEE70120CDE9100540F29820C2F2000020
:104130000FA900220F951295FEF74AF818B1EFF378
:10414000108072B6FEE740F29820C2F200000FA97C
:104150000422FEF73DF818B1EFF3108072B6FEE7C7
:1041600040F29820C2F200000FA90822FEF730F8B2
:1041700018B1EFF3108072B6FEE740F29820C2F259
:1041800000000FA90C224FF00C08FEF721F818B11F
:10419000EFF3108072B6FEE740F29825C2F20005F8
:1041A000284600210027FEF743F928460421FEF7A0
:1041B0003FF928460821FEF73BF928460C21FEF777
:1041C00037F940F22830A4F54C41C2F200004FF418
:1041D000E13280E88600C0E90377C0E90587C7615E
:1041E000FEF7F0FD18B1EFF3108072B6FEE740F273
:1041F000B410A4F53841C2F200004FF4804280E8C8
:10420000C200C0E90372C0E90577C0E90777FCF78F
:1042100001FA18B1EFF3108072B6FEE740F2E02029
:104220000AF54061C2F2000000250C234FF4E13290
:1042300080E82600C0E90355C0E90535C561FEF7F1
:10424000C1FD18B1EFF3108072B6FEE74EF6FC50D8
:10425000CEF20000016841F2040241F08071CEF21A
:104260000002016052F8040C41F2100140F001001C
:1042700042F8040C44F20000C4F20101C2F2000052
:104280000860FFF77BFC40F2F80642F2DD4847F693
:10429000D50944F6BA17C2F20006C0F20618C2F2F7
:1042A000E969C0F20C27356008E00420FCF792F8B9
:1042B0003068451CB0F59C6F35600EDC05FB09804D
:1042C000B842F2D841F21001C4F2010151F8040CD5
:1042D00080F4804041F8040CE7E720464FF4804129
:1042E00000224FF480454FF00008FCF787F9C6F82C
:1042F0000080FFF76DFB40F2DE3603274FF080446D
:1043000013E041F21001C4F201010C6040F201110E
:104310000130C2F200010870002040F20211C2F226
:10432000000108700420FCF755F840F2B800C2F212
:1043300000000068B0420FDB40F2B800C2F200009B
:104340000068B0F57F7F07DC40F2BC00C2F20000DD
:104350000068B0F5AF6F40DA40F20010C2F2000022
:104360000770FCF751F940F20411C2F2000109682C
:104370008842D7D9FCF748F940F20011C2F2000197
:10438000097840F20412FA30C2F20002106069B1FA
:1043900040F20110C2F200000078CA1C82423EBF07
:1043A00040F20110C2F2000080F8008040F20110DB
:1043B000C2F2000000780029A3D08842A1D240F2C6
:1043C0000211C2F20001097800299AD141F21000CD
:1043D000C4F20100056001209FE740F200110020B7
:1043E000C2F20001087041F210014FF08040C4F2A7
:1043F0000101086040F20600C2F20000B0F90000BE
:10440000B0F57A7F06DA40F206014FF47A70C2F214
:104410000001088040F20600C2F20000B0F900007E
:10442000B0F5966F06DD40F206014FF49660C2F2D9
:104430000001088041F210014FF40050C4F2010164
:10444000086041F2040040F20001CEF20000C2F226
:104450000001006809684DF68362C4F21B32A1FBBB
:104460000212910CB0FBF1F040F20011C2F2000117
:104470000978642940F2FC01C2F20001086007D308
:1044800041F21000C4F201004FF48041016052E09B
:10449000FCF7BAF840F20411C2F200010968884240
:1044A00049D9FCF7B1F840F20011C2F200010978D5
:1044B00040F20412FA30C2F20002106069B140F218
:1044C0000110C2F200000078CA1C824205D240F2FC
:1044D0000110C2F200000022027040F20110C2F28C
:1044E00000000078A1B1884212D240F20211C2F25B
:1044F0000001097861B941F21000C4F201004FF4E3
:104500008041016040F20210C2F20000012111E07E
:1045100041F21001C4F201014FF080420A6040F202
:1045200001110130C2F20001087040F20210C2F223
:10453000000000210170FFF779FB40F24810C2F241
:104540000000006801F003FE40F24016C2F20006CF
:104550000246D6E900030F4619463B4602F08AF8A8
:10456000054640F23810C2F2000000680C46C6E969
:10457000005401F0ECFD40F23016C2F20006024693
:10458000D6E900030F4619463B4602F073F8814610
:1045900040F25810C2F2000000680091C6E9009194
:1045A00001F0D5FD40F25016C2F200060246D6E9EF
:1045B000000337460E461946334602F05BF80246C2
:1045C000CDE9010140F2D400C2F200000068C7E961
:1045D000002102F03DFB40F2D006C2F20006316835
:1045E00002460846114602F07FFC40F2DC01C2F2AE
:1045F000000109683060084602F02AFB40F2D80644
:10460000C2F20006316802460846114602F06CFC10
:1046100040F24C18C2F20008D8F80010306008468A
:1046200002F016F906468B462846214601F0DCFAD0
:1046300002F00EF946F200030022C4F25003CDE965
:1046400003101F4601F0BEFB49F69A18C9F69918E7
:1046500049F699134246C3F6C97301F01BFE49F6A9
:10466000991304460D46304659464246C3F6E9734F
:1046700001F010FE22462B4601F0E8FA01F0B4FAF0
:1046800040F23C11C2F20001096840F24C12C2F241
:1046900000021060084602F0DBF80E46009904465E
:1046A000484601F0A1FA02F0D3F800223B468346C7
:1046B000894601F087FB49F699134246C3F6C97350
:1046C00001F0E8FD49F6991305460F4620463146AC
:1046D0004246C3F6E97301F0DDFD2A463B4601F090
:1046E000B5FA01F081FA40F25C11C2F200010968EA
:1046F00040F23C12C2F200021060084602F0A8F834
:1047000005460C46DDE9010101F06EFA02F0A0F861
:1047100046F200030022C4F25003CDE9011001F07B
:1047200051FB49F699134246C3F6C97301F0B2FD35
:1047300049F6991307460E46284621464246C3F6D7
:10474000E97301F0A7FD3A46334601F07FFA01F024
:104750004BFA40F2E408C2F20008D8F8001040F228
:104760005C12C2F200021060084602F071F80D46B9
:10477000494641F2965940F25A47C0F2D419C3F65D
:104780001077044658464A463B4601F083FD2246D0
:104790002B4601F05BFA01F027FA40F2EC02C2F27C
:1047A00000021168C8F800000846164602F050F8EA
:1047B00004460D46DDE903104A463B4601F06AFD1A
:1047C00022462B4601F042FA01F00EFA306002F068
:1047D0003FF881468B46DDE9011046F662624EF2F3
:1047E0006F23C6F22C52C3F6B16301F053FD01F002
:1047F00085F90646D8F800000F4602F029F804466D
:104800000D464846594632463B4601F043FD0246B6
:104810000B462046294601F02DFF01F0E5F9C8F8C6
:10482000000002F015F8804640F25010C2F200007D
:1048300005C88946114601F0D7F902F009F846F695
:1048400062624EF26F23C6F22C52C3F6B16301F0DE
:1048500021FD01F053F940F2EC0BC2F2000B0646C9
:10486000DBF800000F4601F0F3FF04460D4640461A
:10487000494632463B4601F00DFD22462B4601F0EB
:10488000E5F901F0B1F940F2D801C2F2000140F2BD
:10489000D0060968C2F200063468CBF8000008466A
:1048A00002F056FA05462046214602F051FA294602
:1048B00001F0FAFF40F2E001C2F20001096804468B
:1048C000084602F045FA214601F0EEFF01F0C0FF74
:1048D00001F064F901F00CFC0546346840F2C800B0
:1048E000C2F20000056024F0004001F0B1FF06466E
:1048F00028460F4601F02BFC02460B46304639464F
:1049000002F049F8D8B9284602F0A2F9014620463B
:1049100002F08CF801F09CFF00F0B8FF4CF2F812A6
:104920004AF2DC53C1F66322C4F24C0301F0B2FC3C
:1049300001F05AF940F2E801C2F20001086040F2C9
:10494000D800C2F20000046824F0004001F080FFAB
:10495000064640F2C800C2F2000005680F4628462D
:1049600001F0F5FB02460B463046394602F013F8DB
:10497000D8B9284602F06CF90146204602F056F8F4
:1049800001F066FF00F082FF4CF2F8124AF2DC53AD
:10499000C1F66322C4F24C0301F07CFC01F024F95F
:1049A00040F2F001C2F20001086040F2E409C2F2F4
:1049B0000009D9F8000001F04BFF044640F2E8007E
:1049C000C2F2000000680D4601F042FF44F22D39AA
:1049D000CEF61C3943F2E2634A46C3F63A7301F05D
:1049E00059FC49F678424FF6B94306460F46204631
:1049F0002946C2F2A232C3F6EF7301F04BFC3246F5
:104A00003B4601F023F901F0EFF840F2EC0BC2F263
:104A1000000B8046DBF8000040F2E401C2F2000126
:104A2000C1F8008001F014FF054640F2F000C2F228
:104A3000000000680E4601F00BFF43F2E2634A46B5
:104A4000C3F63A7301F026FC49F678424FF6B943B3
:104A500007460C4628463146C2F2A232C3F6EF732F
:104A600001F018FC3A46234601F0F0F801F0BCF8DA
:104A70000025C4F270150446CBF8000040462946D4
:104A800002F066F940F2B431C2F20001086020463B
:104A9000294602F05DF940F2BC31C2F2000109780A
:104AA000002940F2B831C2F2000108602CD140F276
:104AB000B800C2F20000006840F21941884223DCCD
:104AC00040F2B000C2F20000006840F23C01C2F2C5
:104AD0000001086040F2B400C2F20000006840F239
:104AE0003801C2F20001086040F2BC00C2F20000CE
:104AF000006840F24801C2F20001086040F2BC3098
:104B0000C2F200000121017040F2B800C2F20000C0
:104B1000006840F21B41884205DB40F2BC310020B6
:104B2000C2F20001087040F2B000C2F2000000685A
:104B300040F2AC31C2F20001086040F2B400C2F2AF
:104B40000000006840F2A432C2F20002106008685F
:104B5000B0F5FA6F06DD40F2AC30C2F200004FF45F
:104B6000FA61016040F2AC30C2F200000068B0F5BA
:104B70007A7F06DA40F2AC30C2F200004FF47A716C
:104B8000016040F2A430C2F200000068B0F5FA6F94
:104B900006DD40F2A430C2F200004FF4FA61016079
:104BA00040F2A430C2F200000068B0F57A7F06DA65
:104BB00040F2A430C2F200004FF47A71016000F0BC
:104BC000FBF940F2A8310020C2F20001086040F277
:104BD000AC3140F23C00C2F20001C2F200000A68AF
:104BE00000680968824206DC81420CDA40F2AC318E
:104BF000C2F200010968081A02F02AF840F2A8314E
:104C0000C2F20001086040F2B83040F2A835C2F2AA
:104C10000000C2F200050168286802F065F94FF053
:104C20007A5102F095F840F2A03104462860002045
:104C3000C2F20001086040F2A430C2F20000016834
:104C400040F23800C2F200000068814206DC40F207
:104C5000A431C2F20001096881420CDA40F2A431A9
:104C6000C2F200010968081A01F0F2FF40F2A03117
:104C7000C2F20001086040F2B43040F2A036C2F245
:104C80000000C2F200060168306802F02DF94FF012
:104C90007A5102F05DF840F2B031054630600020F4
:104CA000C2F20001086040F2B800C2F200000068E1
:104CB00040F21B41884223DB40F2BC0140F2480035
:104CC000C2F20001C2F200000A680068096882426C
:104CD00006DC814214DA40F2BC01C2F2000109682C
:104CE000081A01F034FA00230022C3F6D07301F051
:104CF000D1FA00F079FF40F2B031C2F20001086051
:104D0000002124F00040C4F2201101F06EFE28B909
:104D100040F2A8310020C2F200010860002125F015
:104D20000040C4F2201101F060FE28B940F2A03129
:104D30000020C2F20001086040F2B030C2F2000070
:104D40000068002120F00040C4F2201101F04DFE67
:104D500028B940F2B0310020C2F200010860FEF72D
:104D6000A7FC40F2B80040F2C031C2F20000C2F22B
:104D7000000100680968022940F2CC31C2F200014A
:104D8000086040F0C280B0F5E16F06DD40F2CC3043
:104D9000C2F200004FF4E161016040F2CC30C2F297
:104DA0000000006801F054FF40F29431C2F20001AB
:104DB0000D680746294602F097F840F29831C2F292
:104DC00000010C688146214601F06EFD40F29C31E5
:104DD000C2F200010E68314602F086F801F01CFFB5
:104DE000804640F20810C2F20000C0F80080284659
:104DF000394601F059FD2146074601F055FD31467F
:104E000001F052FD01F008FF054640F20C10C2F21D
:104E1000000005603846214602F066F8314602F08F
:104E200063F801F0F9FE074640F21010C2F20000EC
:104E300007604846214602F057F8314601F034FD3C
:104E400001F0EAFE40F20601C2F20001B1F90010E1
:104E500040F214128845C2F200021060BEBF40F258
:104E60000812C2F2000211608D42BEBF40F20C1265
:104E7000C2F2000211608F42BEBF40F21012C2F2B5
:104E8000000211608842BEBF40F21410C2F200005E
:104E9000016040F20810C2F200000068B0F5FA6F3D
:104EA00006DD40F208114FF4FA60C2F2000108601A
:104EB00040F20C10C2F200000068B0F5FA6F06DD97
:104EC00040F20C114FF4FA60C2F20001086040F2A7
:104ED0001010C2F200000068B0F5FA6F06DD40F273
:104EE00010114FF4FA60C2F20001086040F2141091
:104EF000C2F200000068B0F5FA6F1CDD40F2141138
:104F00004FF4FA60C2F2000114E040F214114FF4C1
:104F10007A70C2F20001086040F21011C2F2000182
:104F2000086040F20C11C2F20001086040F2081162
:104F3000C2F20001086040F20C10C2F200000068EA
:104F40004DF68361CAF8340040F20810C2F2000046
:104F50000068C4F21B31CAF8380040F21410C2F2E3
:104F600000000068CAF83C0040F21010C2F20000D5
:104F70000068CAF8400040F20000C2F20000006879
:104F8000A0FB010240F2FC00C2F200000168900C9C
:104F900041F20402CEF200021268B2FBF0F2521AA1
:104FA000B2F57A6FF4D341F20401CEF20001096840
:104FB000B1FBF0F0FFF758BA40F2B800C2F20000BF
:104FC000016840F21942914240F2C031C2F2000140
:104FD00008DC40F2BC03C2F200031B689342DCBF52
:104FE00001220A600A6840F2C43C012AC2F2000CA5
:104FF00040F09180036840F21942934200F38B80A5
:1050000040F2BC02C2F20002126840F2AB539A4274
:10501000C0F2818080B540F20602C2F20002B2F90D
:10502000002040F2CC33C2F200031A6040F2E802E2
:10503000C2F20002126840F2E403C2F200031A60F6
:1050400040F2F002C2F20002126840F2EC03C2F237
:1050500000031A6040F2C80240F20403C2F20002E8
:10506000C2F20003126840F2CC0E1B88C2F2000E9E
:10507000CEF80020A3F2795292B2C62A4FF0020273
:105080000A60BDE8804038D8A3F2DC5240F2C63353
:10509000C2F200031A8001228CF8002040F2803214
:1050A000C2F200020023136040F28C32C2F200020E
:1050B000136040F29832C2F20002136040F27C3278
:1050C000C2F20002136040F28832C2F200021360A2
:1050D00040F29432C2F20002136040F28432C2F213
:1050E0000002136040F29032C2F20002136040F2FC
:1050F0009C32C2F2000213600DE063B140F2001274
:10510000C2F200020423137040F2C632C2F200025F
:10511000002313800B600A68022A11D1026840F252
:1051200019439A420CDC40F2BC02C2F2000212683F
:1051300040F29F739A42A2BF00220A608CF80020BE
:105140009CF80020002A6CD10968022918BF70471A
:105150000168B1F5B96F40F2CC31C2F2000106DD51
:105160000A6840F2D5639A42DCBF01320A600B68DC
:1051700040F2D66240F2001C9342C2F2000C04BF1F
:1051800005228CF800200068B0F5B96F38DC40F2D9
:105190000600C2F20000B0F90000834202DD581E92
:1051A00008602DE040F28030C2F200000022026070
:1051B00040F28C30C2F20000026040F29830C2F23D
:1051C0000000026040F27C30C2F20000026040F257
:1051D0008830C2F20000026040F29430C2F2000057
:1051E000026040F28430C2F20000026040F290306F
:1051F000C2F20000026040F29C30C2F20000026085
:105200000868A0F27951B1F5957F40F2C631C2F23B
:10521000000191BFA0F2FA5006208CF80000002097
:1052200008807047490050EAC12018BF04204A0D89
:1052300018BF40F0010040F2FF72B2EB515F08BFAF
:1052400040F00200012808BF052070472DE9F74F04
:10525000144694B00021C4E902111599079121F078
:105260000045C9498D4206DC1599C4E9000117B013
:105270000020BDE8F08FC549DFF814A3A9423CDD4A
:105280000799C44E0029C44FC44A1599534619DDE5
:1052900001F0F0F9554506D0C14AC24B01F0EAF9D8
:1052A000C4E900010AE04FF0D352BE4B01F0E2F92D
:1052B00032463B4601F0DEF9C4E9000117B0012097
:1052C000BDE8F08F00F0C2FC554506D0B44AB54B9E
:1052D00000F0BCFCC4E900010AE04FF0D352B14B2E
:1052E00000F0B4FC32463B4600F0B0FCC4E90001DB
:1052F00017B04FF0FF30BDE8F08FAB49A9421599C8
:1053000078DB21F0004183468846A84AA84B00F08C
:10531000C1FF0022A74B00F099FC00F0E9FE0990C4
:1053200000F015FF06460F469C4A534600F0B2FFB8
:1053300043465A4601F0ACF880468A46984A994B53
:105340003046394600F0A6FF2A0D01250B92424651
:10535000534601F09DF8032DC4E9000139D00B98A4
:10536000C1F30A51401A05EB45111139814230DA77
:105370009148C346784400EB0510CDF80CA00C9082
:10538000D0E900233046394600F084FF02460B4640
:10539000049106905846039901F06CF980468A46BC
:1053A00002460B465846039901F064F9049B069A9D
:1053B00001F060F983460C9803913946D0E9022345
:1053C000304600F067FF5A46039B01F053F96D1C0D
:1053D000BDE707980028A2BF099817B0BDE8F08F75
:1053E000616881F000416160099817B04042BDE8F2
:1053F000F08FFFE784461598C1F31301C0F30A50FC
:10540000A0F2F5304FEA601800F01F06C6F1200048
:10541000139000200690079041F4801E05206D46F1
:1054200076B1664A08EB00017A4452F8213002EB6B
:105430008101B3404A68139922FA01F1194305E04A
:105440005F4908EB0002794451F82210A1FB0E27B6
:10545000A1FB0C131A449A4234BF0123002303EB2F
:10546000070A05EB8003D3E901B70F448F4234BF2D
:105470000121002193448B4411B1934502D903E0EB
:10548000934501D2012100E00021C3E901B7514455
:1054900045F82010011EA0F10100C1DC0298059F13
:1054A00000F10050800F12900298DDE90356800051
:1054B00000F04DFE834628460D9100F05FFE6FF030
:1054C0001D0201F0B8FDCDE90E01304600F056FE98
:1054D0006FF03D0201F0AFFD80468A46384600F08D
:1054E0004DFE6FF05D0201F0A6FD074642465346B1
:1054F000119100F0ABFBDDE90E2300F0A7FB5A464B
:105500000D9B00F0A3FB00250E465A4628460D9B36
:1055100001F0B0F8DDE90E2301F0ACF84246534645
:1055200001F0A8F83A46119B00F0B2FFDFF898A00E
:10553000244A534600F0AEFE07468846234A244BD1
:105540003146284600F0A6FE3A46434600F07EFB70
:10555000074688464FF0A84253463146284600F099
:1055600099FE3A46434600F071FB159A12F0004F3F
:1055700004D0129A81F0004152421292C4E9000113
:10558000129817B0BDE8F08FFB21E93F7CD90240AB
:10559000FB21F93F7370032E8A19A33B000040548E
:1055A0003163621A61B4D03DFB21394183C8C96DB2
:1055B000305FE43F0000E03FD01D00004C1D0000C4
:1055C0002E1D0000182D4454FB21F93D3326A61151
:1055D000460B113C2DE9FF4D21F0004807460C46D3
:1055E000B8F1795F08DA00F083FD002801BF0020E0
:1055F000324904B0BDE8F08D3A46234610461946BC
:1056000000F048FE054602462D480E460B46062190
:10561000784400F05DF82A46334600F03BFEDDE9B1
:10562000022382468B463846214600F033FE04466C
:105630000F4652465B462846314600F02BFE224676
:105640003B4601F017F807468A464FF0FF322846DE
:10565000314601F0F0FC1B4A90450ADA3A465346BF
:1056600001F008F804B00022BDE8F04D134B00F043
:105670000FBF154A4245A8BFA8F500154FF000041A
:10568000B8BF124D22462B4600F0F4FF064688466E
:1056900022462B460020094900F0ECFF04460D4647
:1056A0003A4653463046414600F0E4FF04B02246F5
:1056B0002B46BDE8F04D00F0EBBE00000000F03FCF
:1056C000041B00003333D33F0000E93F0000D23F0A
:1056D0002DE9F0414F1E00EBC7010446D1E900015E
:1056E00015461E4637F006020DD02A46334600F016
:1056F000D1FD7F1E04EBC703D3E9002300F0A6FA17
:1057000037F00602F1D1022F25D0042F13D0062F37
:1057100018BFBDE8F0812A46334600F0BBFDD4E94E
:105720000A2300F093FA2A46334600F0B3FDD4E989
:10573000082300F08BFA2A46334600F0ABFDD4E98B
:10574000062300F083FA2A46334600F0A3FDD4E98D
:10575000042300F07BFA2A46334600F09BFDD4E98F
:10576000022300F073FA2A46334600F093FDD4E991
:105770000023BDE8F04100F069BA00002DE9FF4DBB
:10578000054621F0004084B00C46B0F1795F0BDA99
:105790002846FFF747FD042808BF00F06FF82846A9
:1057A00008B02146BDE8F08D2A460B46104600F0B1
:1057B00071FD06460F462A46234600F06BFD8046E3
:1057C00026488A4632463B4605217844FFF780FF4B
:1057D00083461098029160B3214A224B40465146BD
:1057E00000F058FDCDE900015A4640465146029B63
:1057F00000F050FD82468846DDE906014FF0FF3299
:1058000001F019FC5246434600F034FF32463B4655
:1058100000F040FDDDE9062300F02CFFDDE9002368
:1058200000F028FF08B02A462346BDE8F04D00F0FE
:105830002FBE0B465A463046394600F02BFD084A2B
:10584000084B00F003FA4246534600F023FD08B02F
:105850002A462346BDE8F04D00F0F8B94A1A000088
:10586000495555555555C5BF012201F0E4BB0022ED
:1058700013461046114600F0A5BA0000024A002067
:10588000110701F0D8BB000001FDFFFF2DE9F04D2D
:105890008D4F21F0004A86B005460C46BA452ADBFA
:1058A000AAEB070028430AD08848824501DC1AD1B8
:1058B000CDB106B02846BDE8F04DFFF7D5BF844A0C
:1058C000844B284600F0E6FC07460E46824A834B8E
:1058D0002846214600F0DEFC06B03A463346BDE8D5
:1058E000F04D00F0B3B90120FAF7B3FC06B0BDE803
:1058F000F04DFFF7BCBF7A48824542DABAF1795FD2
:105900000BDA2846FFF78EFC042808BFFFF7B6FF26
:10591000284606B02146BDE8F08D2A460B461046C3
:1059200000F0B8FC834602466E480E460B46062140
:105930007844FFF7CDFE5A46334600F0ABFC804674
:1059400069488A465A46334604217844FFF7C0FE28
:105950005A46334600F09EFC00223B4600F076F9A2
:1059600002460B464046514600F02CFA2A46234692
:1059700000F090FC06B02A462346BDE8F04D00F04A
:1059800065B9284624F0004100223D463B4600F020
:105990007FFD4FF0FF3201F04EFB064602465348B2
:1059A0000F460B4606217844FFF792FE32463B46EF
:1059B00000F070FCCDE900014D4832463B46042121
:1059C0007844FFF785FE32463B4600F063FC002238
:1059D0002B4600F03BF9834602913046394600F0F1
:1059E000DDF8804643480D46504517DCDDE90001EF
:1059F0005A46029B00F0E6F942462B4600F04AFC6C
:105A000042462B4600F022F9012201F014FB304AF5
:105A1000304B00F02FFE304A304B4CE04FF0000A84
:105A200052460B46404600F011F9CDE903105246AC
:105A30002B461046194600F02DFC32463B4600F03E
:105A400027FDDDE9033200F0BDF906460F46DDE92A
:105A500000015A46029B00F0B5F9834600910122ED
:105A60003046394601F0E7FA194A1A4B00F010FDAA
:105A700006460F4601224046294601F0DCFA5A4606
:105A8000009B00F007FC32463B4600F0F3FD064663
:105A90000F4601225046294601F0CDFA0E4DDFF89F
:105AA00058802A46434600F0F3FC32463B4600F05D
:105AB000EFFC2A46434600F0EBFC002CD8BF81F0F7
:105AC000004106B0BDE8F08D0000F03F0000F07F1F
:105AD000075C143326A6913C182D4454FB21F93F52
